:020000040800F2
:10000000980C002049020008510200085302000821
:1000100055020008570200085902000800000000BD
:100020000000000000000000000000005B0200086B
:100030005D020008000000005F0200084121000886
:100040006302000863020008630200080000000069
:100050000000000063020008630200086302000859
:100060006302000800000000630200086302000849
:100070006302000800000000352500086302000844
:100080006302000863020008000000006302000829
:1000900063020008000000000000000000000000F3
:1000A00000000000000000000000000063020008E3
:1000B000630200086302000863020008630200088C
:1000C00000F002F800F0B0F80AA090E8000C8244BA
:1000D0008344AAF10107DA4501D100F0A5F8AFF297
:1000E000090EBAE80F0013F0010F18BFFB1A43F016
:1000F0000103184734360000543600000A444FF01C
:10010000000C10F8013B13F0070408BF10F8014B76
:100110001D1108BF10F8015B641E05D010F8016BBB
:10012000641E01F8016BF9D113F0080F1EBF10F81F
:10013000014BAD1C0C1B09D16D1E58BF01F801CB42
:10014000FAD505E014F8016B01F8016B6D1EF9D5C5
:100150009142D6D3704700000023002400250026DA
:10016000103A28BF78C1FBD8520728BF30C148BF1A
:100170000B6070476E2900F03F81702900F081828A
:10018000662903F02182652903F01E82672903F0A6
:100190001B82612903F01A8203681B0A28BF41F001
:1001A0008001692900F0EC80642900F0E98075295C
:1001B00000F0E6806F2900F00F82782900F04D8270
:1001C000E92900F0A981E42900F0A681F52900F0D1
:1001D000A381EF2900F00C82F82900F04C8203681B
:1001E000DB0928BF41F08001632900F04D877329A6
:1001F00000F05287E32900F05D87F32900F0628761
:10020000002070471FB500F0B3FF0400002000215C
:1002100003F0C4F9401C60600020002103F0A8F93D
:10022000E0601FBD10B510BD00F074FF1146FFF770
:10023000E9FF02F0B1FC01F051F803B4FFF7F2FF5F
:1002400003BC01F099F800000948804709480047BD
:10025000FEE7FEE7FEE7FEE7FEE7FEE7FEE7FEE776
:10026000FEE7FEE704480549054A064B70470000D3
:1002700051220008C100000898060020980C0020B8
:1002800098080020980800200FB41CB5084B06AA57
:100290007B4469460090059800F0C7F804460020AA
:1002A000694600F0D5F820461CBC5DF814FB000040
:1002B000BD01000070477047704770B504468569FE
:1002C0000068C10601D5302600E02026C00707D00F
:1002D00070BDD4E9012130469047206A401C20625D
:1002E0006D1EF6D570BD70B5044685690078C007EF
:1002F00007D170BDD4E9012120209047206A401C1D
:1003000020626D1EF6D570BD09684A0501D540B260
:100310007047C905FCD500B2704709684A0501D588
:10032000C0B27047C905FCD580B2704770B50C46A5
:100330000546012A05D02878800600D5EA69002301
:1003400002E0012305E05B1C934202D2E05C00283E
:10035000F9D1A869E618C01AA861286A1844286269
:100360002846FFF7AAFF04E0D5E9012114F8010BA4
:100370009047B442F8D32846FFF7B5FF70BD0000A0
:100380002DE9F0410646002410687529314616A56E
:1003900010D0FFF7B9FF002802DA404213A507E0AA
:1003A00031688A0701D512A502E0490704D511A5D5
:1003B000012401E0FFF7B1FF00210A2206F1240722
:1003C00009E0B0FBF2FCB0FBF2F302FB1C003030A2
:1003D00078541846491C0028F3D123462A46304653
:1003E000BDE8F04100F061BA000000002D000000FF
:1003F0002B0000002000000011680268006A53050D
:1004000001D508700AE0D30501D5088006E013067F
:1004100003D5C217C1E9000200E00860012070475F
:1004200001694A1C02610878704700B58FB0CDE9B8
:1004300001310021059105497944CDE903101146A8
:10044000684600F029F90FB000BD0000E5FFFFFF8E
:100450000A6802F8010B0A60704700002DE9FF5F8F
:1004600015468A460446DFF8AC80F8440027D8E9F0
:1004700000103E46CDE9001010E03AF816106A462A
:1004800002A800F023FE411C07D02178890603D57D
:10049000E269391891420DD80744761C207880060D
:1004A00002D5E069B84205DDAE42E6DB3AF8160057
:1004B0000028E2D1A069C01BA0612046FFF7FDFE25
:1004C000D8E90010CDE90010002017E03AF8181024
:1004D0006A4602A800F0FAFDB0F1FF3F81460BD05A
:1004E00000250DF1080B05E0D4E901211BF80500FA
:1004F00090476D1C4D45F7D308F10100B04280468E
:10050000E4DB206A384420622046FFF7ECFEBDE8B9
:10051000FF9F0000623100002DE9F0418046D21DAE
:1005200022F007020025D2E90002F52915A614D011
:10053000011E72F1000106DA0023D0EB030063EB29
:10054000020211A608E0D8F800108B0701D50FA60B
:1005500002E0490701D50EA601251146002408F145
:10056000240704E000F05CF930323A55641C50EA8C
:100570000102F7D12B46324621464046BDE8F04104
:1005800000F093B9000000002D0000002B000000D7
:100590002000000030B4002100F1240408E002F043
:1005A0000705D208303542EA4372DB086554491C1E
:1005B00052EA0305F3D10468002310A2250708D5E9
:1005C00004F020040C4304D0C46901230CA2641E6F
:1005D000C46130BC00F069B910B50446214610680A
:1005E000FFF79BFE02462046BDE810400023D1E7FE
:1005F000D21D22F00701D1E90023CBE70000000063
:1006000030000000F0B40D460188090502D5214CE8
:100610007C4402E01F4C7C440E34002100F124068F
:1006200008E002F00F071209E75D42EA03721B09B6
:100630007754491C52EA0307F3D1027800231207CA
:1006400004D5702D06D009B1022311342246F0BC26
:1006500000F02BB901231034F8E770B504460D46BD
:1006600021461068FFF759FE024629462046BDE89C
:1006700070400023C6E7D21D22F00703D3E9002310
:10068000C0E70368126843F0200303600823C361D6
:100690000023B7E7C42F00002DE9F05F8946044628
:1006A0004FF0000ADFF874B1FB44C0F820A02046E8
:1006B000E1688847002874D0252806D0D4E90121B4
:1006C0009047206A401C2062F1E700265F462046E2
:1006D000E16888472028054607DB312D05D27819C7
:1006E00010F8200C08B10643F1E7B00701D526F059
:1006F0000406C4F81CA00027C4F818A02A2D09D0AD
:10070000284602F02DFF38B304EB8708303DC8F8C7
:10071000185019E059F8041B204604EB8702916138
:10072000E1688847012F054618D1E069002820DAE2
:1007300026F020061DE0D8F8180000EB800005EB3D
:1007400040003038C8F818002046E1688847054660
:1007500002F006FF0028EED1012F0AD02E2D08D17D
:100760002046E16888477F1C0546022F46F0200698
:10077000C4DBA069002803DA404246F00106A0610C
:10078000F00701D026F010066C2D0BD0682D09D093
:100790004C2D39D06A2D35D0742D35D07A2D33D0EB
:1007A00016E038E0E1682F4620468847B842054603
:1007B00009D16C2F26D04FF48060E16806432046B3
:1007C0008847054604E06C2F1AD04FF4807006432A
:1007D0000DB3A5F14100192802D8203546F4006672
:1007E0004A462946204626604E46FFF7C3FC80B1A4
:1007F00001280BD0F61D26F0070000F1080956E786
:100800004020E4E78020D8E70020D6E706F104097D
:100810004DE7284652E7206ABDE8F09F542F0000BC
:1008200030B5B0F10A0271F100034FEA900E4EEAC2
:10083000817EB0EB0E0061EB91014FEA101E4EEA93
:10084000017E10EB0E0041EB11114FEA102E4EEA23
:10085000016E10EB0E0041EB11214FEA104E4EEAF3
:10086000014E10EB0E0041EB1141401841F1000127
:100870004FEAD00040EA41704FEAD1014FEA8104CB
:1008800044EA907410EB800544EB01046D1944EBCD
:100890000404521BA3414FF0000348BF0A3200D5A5
:1008A00030BD401C41F1000130BD2DE9F0470D463F
:1008B00099469246044600F124080168880604D54A
:1008C000E06921F01001216000E00120A84201DD73
:1008D000471B00E00027A1697A1902EB0900081AFA
:1008E000A0612078C00602D42046FFF7E6FC00266F
:1008F00008E0D4E901211AF806009047206A401C5C
:10090000761C20624E45F4DB2078C0060AD52046CE
:10091000FFF7D3FC06E0D4E9012130209047206A9C
:10092000401C2062381EA7F10107F4DC07E0D4E97F
:10093000012118F805009047206A401C2062281EFB
:10094000A5F10105F3DC2046FFF7CDFC2078000679
:1009500002D50220BDE8F0870120FBE72DE9FF4F1B
:100960000C461E464FF0FF378BB0D2E90001DDF890
:1009700060800A908A46C1F30A5505B93D460021B8
:1009800008464FF00000BAF1000F00F4400005DA0D
:1009900000EB80004FF4400101EA50004FEA90590B
:1009A000B9F1010F00DDB9460A9850EA4A000ED0AD
:1009B00044F61050A5F2FF3545432F14B8F1000F4F
:1009C0001ED07542291E1EDDC9F100021CE0B8F1DF
:1009D000010F4FF0000001D0302103E0F24305E0A9
:1009E0002154401CB042FBDB304600220021215440
:1009F0000B99C1F80880C1E900200FB0BDE8F08F65
:100A0000BD1B6D1CDEE74A4600DA694206A800F00D
:100A1000F3FB06AB93E8070003AB83E807005046FF
:100A20000A9902F0C0F98DE80700A0F500501F38C0
:100A300000900398002D0ADD42F21F014A46084447
:100A4000002303A90390684602F02AFC09E0A0F500
:100A500000504A461F38002303A90390684602F05D
:100A600034FC8DE807000004000C03D04FF0FF3089
:100A7000410800E01046B8F1000F03D000220092B8
:100A800015461EE0751E05D4FFF7CAFE30326255CA
:100A90006D1EF9D5B3460122084302D000227F1C07
:100AA00004E02078302801D100227F1E002A099717
:100AB00084D01DE0112D07DAFFF7B2FE3032625507
:100AC0006D1C50EA0102F5D1084302D00098C8B16C
:100AD0000EE00021681E05E0235C625C6354225432
:100AE000401E491C8142F7DBAB46A81B401E099003
:100AF000002004F80B000B98099AC0F80880C0E9A0
:100B0000002B7AE711264FF0000857E72DE9F04F48
:100B100088460446D21D22F0070191B0D1E90001B8
:100B2000CDE90A0102F008FD02460B98C00F01D082
:100B30002D2007E02068810701D52B2002E020212D
:100B400001EAC000032A099001D0072A05DB034609
:100B50004146204600F010FB0BE12078800601D5CD
:100B6000E06900E00620B8F1650F814606D0B8F1D3
:100B7000660F18D0B8F1670F70D131E00020B9F1DD
:100B8000110F009001DB112301E009F101030AAA12
:100B900001A90CA8FFF7E2FEDDE90C70002609F1BF
:100BA0000105834647E001204B4600904FF0004787
:100BB0000AAA01A90CA8FFF7D1FEDDE90DB00C9936
:100BC0005D46002610B909F101000D18B9EB0500CA
:100BD00003D4C0F1FF3609F10105A5EB09002BE0B4
:100BE000B9F1010F01DA4FF001090020B9F1110F3D
:100BF0000090484601DD112300E003460AAA01A93E
:100C00000CA8FFF7ABFEDDE90C704D4600268346CD
:100C1000207800070AD4AB4500DA5D4601A8012D13
:100C200004DD411911F8011C302907D04F4502DAC3
:100C300017F1040F04DA012082460FE06D1EEEE783
:100C4000002F02DCED1B3E4403E0781CA84200DDCF
:100C50007D1CB81B00F1010A4FF000472078000707
:100C600003D4AA4501DB4FF0FF3A0021B7F1004F52
:100C70000DF143088DF8431024D002202B23002FC0
:100C800001DA7F422D230A21021EA0F1010000DCBF
:100C90005FB197FBF1FC97FBF1F201FB1C7C17465F
:100CA0000CF1300C08F801CDEEE7A8F1010003705B
:100CB0002188090501D5452100E06521A0F1010841
:100CC00000F8011C09980FA9A1EB0807FF1D00B14E
:100CD0000120411901EBEA70A1693844081A401E4D
:100CE000A0612078C00602D42046FFF7E6FA0998F2
:100CF00028B1D4E901219047206A401C2062207865
:100D0000C00622D52046FFF7D8FA1EE0002E04DBED
:100D1000B34502DD01A8805D00E03020D4E9012167
:100D20009047206A401C2062761CAAF101005FEA0D
:100D3000000A0AD100F01CFAC0680168405CD4E9DE
:100D400001219047206A401C2062281EA5F1010560
:100D5000DCDC07E0D4E9012118F8010B9047206A98
:100D6000401C2062381EA7F10107F3DC2046FFF784
:100D7000BAFA032011B041E62DE9F04F04460D46C2
:100D8000D21D22F0070089B0D0E9009748463946C5
:100D900002F0D2FB0246F80F01D02D2307E02068B5
:100DA000810701D52B2302E0202101EAC0038DF841
:100DB00020300BB1012000E00020032A824601D040
:100DC000072A04DB2946204600F0D6F93FE12078C7
:100DD000800601D40D2500E0E569C7F30A560D2D04
:100DE00049DA00214FEA175B08464FF00000002F58
:100DF00000F4400007DA00EB80004FF4400100EB04
:100E0000D07001EA60008115012901DD4FF0FF314A
:100E100000224FEA850CBCF1180F06D31346ACF143
:100E200018004FF08052C24003E04FF4801323FAC1
:100E30000CF30CF10C0CBCF1200F04D3ACF1200C22
:100E400009FA0CF001E007FA0CF000294FF0004815
:100E500001DD18B90FE00ED140450CD319EB0209A2
:100E60005F4121B9404502D19F4329EA0209BBEB0A
:100E7000175F00D0761C2088000502D57B48784497
:100E800002E07A487844193808AA302302F80A3078
:100E9000037C0AF10101002E0AF1020A53546A464A
:100EA00002DC4FF0300101E04FF031014FF001085A
:100EB0008DF8001002D0A6F2FF3603E059EA470190
:100EC00000D06B4E002D02DC2178090704D54FF0CD
:100ED00002082E218DF80110C44600210BE0C7F353
:100EE00003433F01C35C491C6D1E02F8083005290D
:100EF00008F1010801DA002DF1DC00210CE000EB23
:100F00001973491C1B786D1E082902F808304FEA36
:100F1000091908F1010801DA002DF0DC21688B06BF
:100F200002D516E0A8F10108E04505DD02EB080353
:100F300013F8013C302BF5D0B8F1000F09DD02EBBE
:100F4000080313F8013C2E2B03D1090701D4A8F1A3
:100F50000108002D05DD3E2102F808106D1E08F184
:100F60000108407C002E02F8080008F1010804DAAC
:100F70002D20764202F8080002E02B2002F808003B
:100F80000A214FF47A70864208F101080BDB96FBC8
:100F9000F0F3303302F8083096FBF0F308F1010863
:100FA00000FB136601E0642E0CDB642096FBF0F37B
:100FB000303302F8083096FBF0F308F1010800FB2B
:100FC000136601E00A2E06DB96FBF1F0303002F8E2
:100FD000080008F1010896FBF1F001FB10603030C9
:100FE00002F80800A16908F1010808EB050202EB0C
:100FF0000A00081AA0612078C00602D42046FFF734
:101000005CF9216A08AE01EB0A00206204E0D4E931
:10101000012116F8010B9047BAF1010AF7D22078A6
:10102000C00602D52046FFF748F96E4609E016F8DB
:10103000010B3E280FD0D4E901219047206A401CC3
:101040002062B8F10108F2D22046FFF74CF909B04E
:101050000320BDE8F08F206A2844206203E0D4E931
:101060000121302090476D1EEBD3F8E7A227000046
:1010700002FCFFFF10B5436913B1AFF3008001E03C
:10108000FFF754F9012010BD127800F124010A7015
:1010900000224A700122EDE711684FF0FF32E9E7C4
:1010A00010B5436913B1AFF3008001E0FFF7D6F943
:1010B000012010BD128800F1240182840022C28424
:1010C0000122EDE711684FF0FF32E9E72DE9F04129
:1010D00016460C46054600F043F8036893F80101F4
:1010E000012807D0FF2C12D8185D80B101202C7088
:1010F000BDE8F081D3F807013246214603F2071319
:10110000C7182846BC46BDE8F041002360474FF0B1
:10111000FF30EDE7754600F0EBF8AE460500694696
:10112000534620F00700854618B020B5FFF79AF81F
:10113000BDE820404FF000064FF000074FF00008D8
:101140004FF0000BAC46ACE8C009ACE8C009ACE815
:10115000C009ACE8C00921F007018D4670470000C6
:1011600010B500F005F8001D10BD00BF31240000CF
:1011700000487047380600202DE9F0411F4604461C
:1011800003260168072A01F4006004DB08B116A5F4
:1011900005E016A503E008B115A500E015A521F0AE
:1011A00010002060A069C01EA0610FB1401EA061A8
:1011B0002046FFF782F84FB1D4E901213846904725
:1011C000206A401C2062C01C206206E0206AFAE708
:1011D000D4E9012115F8010B9047761EF8D220467C
:1011E000FFF781F8BDE8F0814E414E006E616E0060
:1011F000494E4600696E66002DE9F0478146164665
:101200008AB0354878440DC88DE80D0032487844DE
:10121000801C03AC0DC884E80D0041F69B300844E7
:10122000372190FBF1F290FBF1F5A5F1800501FB70
:1012300012041B3C02D56442012000E00020DFF8CC
:1012400098A080460027FA44AAF1BE0A0EE0E00703
:101250000AD03246684607EB470101230AEB8101B9
:1012600002F033F88DE8070064107F1C002CEED1EB
:10127000194F7F44AE3F19E0E80715D007EB041083
:101280000DF1180A90E80E008AE80E00C068F042DE
:1012900001D1981908903246012306A903A802F04B
:1012A00014F803AB83E807006D10641C002DE3D134
:1012B0004FF0010332466946B8F1000F03A802D08F
:1012C00001F0EEFF01E002F000F8C9E90001C9F801
:1012D00008200AB0BDE8F087AC24000010B5044631
:1012E000AFF300802046BDE81040FEF7A6BF000027
:1012F00000487047180600204FF0013C50F8042BBE
:1013000051F8043B9A4221D1A2EB0C03934313EA18
:10131000CC1317D150F8042B51F8043B9A4215D145
:10132000A2EB0C03934313EACC130BD150F8042B1C
:1013300051F8043B9A4209D1A2EB0C03934313EA00
:10134000CC13DBD04FF00000704700BFD01A01BAB9
:10135000B1FA81F101F0180122FA01F0CB40DBB2C1
:10136000C0B2C01AC1F120012CFA01F3D11A914385
:1013700011EAC311E6D1704701491820ABBEFEE760
:10138000260002007047000080B582B000F058FCD3
:1013900000F0FCFD019000F053FC019802B080BD0C
:1013A00040F28C60C2F200000068022807D1FFE71B
:1013B00040F28C61C2F2000101200860FFE740F2B8
:1013C0008C60C2F200000068032807D1FFE740F2FA
:1013D0008C61C2F2000100200860FFE77047000046
:1013E0001C21C4F202014FF0FF30086048F20801EE
:1013F000C4F20A01086840F6FF729043086048F2A0
:101400000C01C4F20A01086840F03F00086048F28D
:101410001801C4F20A01086840F6AA2210430860C5
:1014200048F21001C4F20A01086840F03F00086069
:101430000821C4F20B01086820F47F1008600C2119
:10144000C4F20B01086840F4F06008601821C4F28F
:101450000B01086840F42A1008600421C4F20B0153
:10146000086840F4F060086048F20801C4F20B011B
:10147000086820F00F00086048F20C01C4F20B016C
:10148000086840F00300086048F21801C4F20B013C
:10149000086840F00A00086048F20401C4F20B0139
:1014A000086840F00300086048F20801C4F20E0129
:1014B000086820F0F000086048F20C01C4F20E0148
:1014C000086840F00C00086048F21801C4F20E01F0
:1014D000086840F0A000086048F21001C4F20E0154
:1014E000086840F00C0008600021C4F20B01086895
:1014F00040F48060086048F20001C4F20B01086803
:1015000020F001000860086840F00200086048F21E
:101510000401C4F20A01086820F03F00086048F2A4
:101520000401C4F20E01086820F00C000860704746
:1015300080B584B000200190FFE70198012836D8DB
:10154000FFE79DF8040000F0D1FD072001F0CCF981
:101550003E2001F0E1F9402001F0DEF90020039087
:10156000FFE7039807281AD8FFE79DF80C0040F022
:10157000B80001F0D1F900200290FFE702983F285F
:1015800008D8FFE7002001F001FAFFE702980130D8
:101590000290F3E7FFE7039801300390E1E73F2073
:1015A00001F0BAF9FFE7019801300190C5E704B0F6
:1015B00080BD000080B582B0FFF712FF00F06AFD29
:1015C00000200190FFE70198012815D8FFE79DF85A
:1015D000040000F08BFD072001F086F93F2001F0A8
:1015E0009BF9052001F080F9C02001F095F9FFE793
:1015F000019801300190E6E702B080BD80B588B067
:101600008DF81F008DF81E108DF81D2040F27C60B3
:10161000C2F200000068C16801919DF81D10426887
:10162000514302910078400758B1FFE740F27C60D7
:10163000C2F2000000680168012000EBD1000090B8
:1016400008E040F27C60C2F2000000680068C00858
:101650000090FFE70298019A009900FB0120039097
:1016600040F27C60C2F2000001680968C908049178
:1016700000680078400720B1FFE70498013004902B
:10168000FFE700200590FFE705980499884230D2D3
:10169000FFE700200690FFE7069840F27C61C2F267
:1016A00000010968496888421ED2FFE79DF81F00C3
:1016B000DDF818E070449DF81E10DDF814C001EB51
:1016C000CC01039A40F27C63C2F200031B685B68A2
:1016D00003FB0CE3D25CC0B2C9B200F069F8FFE7CB
:1016E000069801300690D7E7FFE70598013005908E
:1016F000CAE708B080BD000080B584B08DF80F0047
:101700008DF80E10029200200190FFE702980199D7
:10171000405CB8B1FFE79DF80F10019B40F27C6080
:10172000C2F200000068406803FB00109DF80E1034
:10173000029AD25CC0B2FFF761FFFFE70198013067
:101740000190E3E704B080BD80B5C4B08DF80F010F
:101750008DF80E114292429A43F22571C0F60001B3
:101760000DF10500FEF790FD00204190FFE7419943
:101770000DF10500405CC0B1FFE79DF80F11419BE2
:1017800040F27C60C2F200000068406803FB001079
:101790009DF80E110DF10502D25CC0B2FFF72EFFCD
:1017A000FFE7419801304190E1E744B080BD00007F
:1017B00080B588B08DF81F008DF81E108DF81D20A3
:1017C0009DF81F0000217F280846C8BF01209DF812
:1017D0001E203F2AC8BF0121084308B1FFE7EAE005
:1017E0009DF81F00800900F081FC9DF81F0000F0AB
:1017F0003F008DF81F009DF81E00C00805909DF861
:101800001E0000F0070004900498C0F10800039047
:101810009DF8140040F0B80001F07EF89DF81F001C
:1018200040F0400001F078F800F0EAFB06909DF8E7
:10183000140040F0B80001F06FF89DF81F0040F070
:10184000400001F069F840F28060C2F200000078C8
:1018500001460291042843D80299DFE801F0030E03
:10186000192633009DF818009DF81D10049A914028
:10187000C9B2084301F08AF832E09DF818009DF8DB
:101880001D10049A9140C9B2484001F07FF827E04A
:101890009DF818009DF81D1081F0FF01049A9140F9
:1018A000C9B2084301F072F81AE09DF818009DF8DB
:1018B0001D1081F0FF01049A9140C9B2484001F027
:1018C00065F80DE00698039AFF21D14008409DF885
:1018D0001D10049A91400843C0B201F057F8FFE789
:1018E0000498002867D0FFE70598013040F0B80061
:1018F000C0B201F011F89DF81F0040F0400001F067
:101900000BF800F07DFB06900598013040F0B80020
:10191000C0B201F001F89DF81F0040F0400000F057
:10192000FBFF40F28060C2F20000007801460191A6
:1019300004283FD80199DFE801F0030D17232F0099
:101940009DF818009DF81D10039AD140084301F03E
:101950001DF82FE09DF818009DF81D10039AD14046
:10196000484001F013F825E09DF818009DF81D107F
:1019700081F0FF01039AD140084301F007F819E014
:101980009DF818009DF81D1081F0FF01039AD140C9
:10199000484000F0FBFF0DE00698049AFF219140BB
:1019A00008409DF81D10039AD1400843C0B200F0D2
:1019B000EDFFFFE7FFE708B080BD000081B08DF8C4
:1019C00003009DF9031001F01F02012090404A0915
:1019D0004EF20011CEF2000141F8220001B0704732
:1019E00082B08DF8070000919DF90700B0F1FF3F2C
:1019F0000CDCFFE7009840019DF8071001F00F0193
:101A00004EF61452CEF20002885409E000984001CC
:101A10009DF907104EF20042CEF200028854FFE713
:101A200002B070478EB00D900C910D9840680B90ED
:101A30000D9880680A900D98C06809900D9800690B
:101A400008900D98406907900D98806906900D9850
:101A5000C0690590002003900120029003200190AE
:101A60004FF0011000900C9800880490FFE7049854
:101A7000002865D0FFE79DF81000C00700284ED071
:101A8000FFE70B98029988430C998978039A914053
:101A900008430B900A98019988430C99097A039A94
:101AA0005200914008430A900998029988430C9982
:101AB000897A039A914008430990089800998843CD
:101AC0000C99039A02F1100CCB78097903FA0CF304
:101AD00018439140084308900798009988430C994F
:101AE000039A02F1100C4B79897903FA0CF318432D
:101AF0009140084307900698019988430C99497AC8
:101B0000039A520091400843069005980299884331
:101B10000C99C979039A914008430590FFE7029810
:101B200040000290019880000190009840000090D1
:101B3000039801300390FFE704984008049096E76B
:101B40000B980D9920F01F020023C4F20C03994258
:101B500008BF104648600A980D9920F01F0299426C
:101B600008BF1046886009980D9920F01F0299421D
:101B700008BF1046C86008980D9920F01F029942CE
:101B800008BF1046086107980D9920F01F0299427E
:101B900008BF1046486106980D9920F01F0299422F
:101BA00008BF1046886105980D9920F01F029942E0
:101BB00008BF1046C8610EB07047000082B00190A7
:101BC0000091009A019942F01F000023C4F20C0317
:101BD000994208BF024608689043086002B0704707
:101BE00082B0019000910098019909680843019919
:101BF00020F01F020023C4F20C03994208BF1046D4
:101C0000086002B07047000081B0009000994FF664
:101C1000FF7008800099002088700099C8700099B2
:101C2000087100994871009988710099C8710099EC
:101C30000872009948720099887201B070470000DC
:101C400081B00F200090FFE7009830B1FFE700BFA0
:101C5000FFE7009801380090F6E701B070470000F8
:101C600081B048F20000C4F20A00006800F03F00B2
:101C700048F20001C4F20E01096801F00C0140EACB
:101C800001100090009801B07047000091B01090D2
:101C90000C20C4F2020000688007002806D5FFE788
:101CA00041F20020C0F27A000F9005E041F20020DE
:101CB000C0F27A000F90FFE70C20C4F20200006827
:101CC000C00720B1FFE70F9840080F90FFE70F987B
:101CD0000E900C20C4F202000068400700280DD5C9
:101CE000FFE70420C4F202000068C0F303200130C3
:101CF000049004990E9848430E90FFE70C20C4F21C
:101D000002000068C0F301200146029140B1FFE7E4
:101D1000029801280BD0FFE70298022822D026E083
:101D2000109941F20020C0F27A00086024E00C20F3
:101D3000C4F20200006800090007002803D4FFE78E
:101D40000E980D900AE00E980C21C4F20201096869
:101D5000C1F302110131C8400D90FFE70D981099B1
:101D6000086009E010994FF40040086004E0109901
:101D700049F640400860FFE71020C4F20200006806
:101D80008007002806D5FFE741F20020C0F27A0064
:101D90000C9005E041F20020C0F27A000C90FFE7C1
:101DA0001020C4F202000068C00720B1FFE70C98C1
:101DB00040080C90FFE70C980B901020C4F2020032
:101DC0000068400700280DD5FFE70420C4F2020098
:101DD0000068C0F303100130049004990B98484345
:101DE0000B90FFE70B980A901020C4F202000068E5
:101DF000C006002804D5FFE70A9840080A90FFE7CC
:101E00000A98109948601820C4F20200006800097E
:101E100003909DF80C000007002806D4FFE741F26C
:101E20000020C0F27A0006900FE0039800F007004F
:101E3000411C012088400390039941F20020C0F228
:101E40007A00B0FBF1F00690FFE706981099C860A1
:101E50001820C4F20200006803909DF80C000007EF
:101E6000002806D4FFE741F20020C0F27A00059076
:101E70000FE0039800F00700411C01208840039008
:101E8000039941F20020C0F27A00B0FBF1F0059016
:101E9000FFE70598109908611420C4F20200006859
:101EA00000F003000146019140B1FFE701980128CD
:101EB00007D0FFE70198022806D008E00F980990A4
:101EC00008E00C98099005E00E98099002E00B9844
:101ED0000990FFE71420C4F202000068C0F301106B
:101EE0000146009140B1FFE70098012808D0FFE7C4
:101EF0000098022808D00AE04FF40040089009E05A
:101F000049F64040089005E00998089002E00698DC
:101F10000890FFE71420C4F202000068000A039052
:101F20009DF80C000007002803D4FFE708980790ED
:101F30000CE0039800F00700411C0120884003904A
:101F400008980399B0FBF1F00790FFE70798109904
:101F5000886011B07047000082B001908DF80310C6
:101F60009DF8030040B1FFE7019A1C21C4F2020171
:101F700008681043086007E0019A1C21C4F20201BE
:101F8000086890430860FFE702B0704780B582B0F0
:101F900048F20001C4F20B010091086840F0020011
:101FA0000860FFF74DFE009948F20402C4F20A02ED
:101FB000106820F03F00106048F20402C4F20E02E4
:101FC000106820F00C0010600022C4F20B021068B0
:101FD00040F480601060086820F001000860FFF79E
:101FE0002FFE0099086820F002000860FFF738FE15
:101FF0000190FFF725FE9DF8040002B080BD0000AF
:1020000080B582B048F20001C4F20B01009108686B
:1020100040F002000860FFF713FE009948F2040246
:10202000C4F20A02106820F03F00106048F2040277
:10203000C4F20E02106820F00C0010600022C4F2FE
:102040000B02106840F480601060086840F00100E6
:102050000860FFF7F5FD0099086820F002000860AD
:10206000FFF7FEFDFFF7ECFD0099086820F0020085
:102070000860FFF7E5FD0099086840F0020008607D
:10208000FFF7EEFD8DF80700FFF7DAFD9DF807007A
:1020900002B080BD81B00021C4F20B01086840F499
:1020A000007008600421C4F20B01086840F400705D
:1020B000086000200090FFE7009880087C280CD87A
:1020C000FFE70021C4F20B01086820F400700860EB
:1020D000FFE7009801300090EEE70021C4F20B0109
:1020E000086840F40070086001B0704780B582B0A5
:1020F0008DF807009DF80700421C0021C4F20B0177
:10210000086840EAC21008609DF80720802000EBB4
:10211000C21060F4C0720868104008600421C4F264
:102120000B01086840F4C0700860FFF789FD9DF856
:10213000070040F27861C2F20001087002B080BD71
:1021400040F28860C2F20000006840B1FFE740F250
:102150008861C2F20001086801380860FFE7704733
:1021600085B00C20C4F2020000688007002806D564
:10217000FFE741F20020C0F27A00049005E041F24E
:102180000020C0F27A000490FFE70C20C4F20200A5
:102190000068C00720B1FFE7049840080490FFE7FB
:1021A000049803900C20C4F2020000684007002845
:1021B0000DD5FFE70420C4F202000068C0F303203D
:1021C000013001900199039848430390FFE70C20E8
:1021D000C4F202000068C0F301200146009140B142
:1021E000FFE7009801280ED0FFE7009802281CD0D6
:1021F00023E040F21061C2F2000141F20020C0F27F
:102200007A00086021E003980C21C4F202010968F9
:10221000C1F303110131B0FBF1F00290029840F2DA
:102220001061C2F2000108600FE040F21061C2F2DA
:1022300000014FF40040086007E040F21061C2F274
:10224000000149F640400860FFE705B07047000014
:1022500080B51C21C4F20201102008600C21C4F2D8
:102260000201002008600421C4F202010860082174
:10227000C4F2020108601021C4F2020108601421B6
:10228000C4F2020108601821C4F202010860202192
:10229000C4F2020108602421C4F20201086028216E
:1022A000C4F2020108602C21C4F202010860FFF7A9
:1022B00057FF80BD83B002908DF807102420C4F230
:1022C00002000068009002980021C4F207018842D1
:1022D0000ED1FFE7009820F0FF0000909DF8071056
:1022E000009808430090009840F0807000902EE025
:1022F000029848F20001C4F2070188420FD1FFE7BB
:10230000009820F47F4000909DF80710009840EA64
:1023100001200090009840F00070009016E00298B4
:102320000021C4F2080188420FD1FFE7009820F491
:102330007F0000909DF80710009840EA014000904F
:10234000009840F080600090FFE7FFE7FFE700980B
:102350002421C4F20201086003B0704782B00190EA
:1023600000910098C0430199486502B07047000091
:1023700083B002908DF807100298C06800909DF815
:10238000070028B1FFE7009840F00100009004E04A
:10239000009820F001000090FFE700980299C860C3
:1023A00003B0704784B003900291029800880399AB
:1023B00008600298408803994860029880880399D1
:1023C00088600299C8880A8910444A8910448A8919
:1023D0001044C9890844019001980399C860029982
:1023E0000A8A488A00EB02108A8A1044C98A084483
:1023F000009000980399086504B0704781B0009080
:1024000000990020088000994880009988800099F0
:10241000C8800099088100994881009988810099B5
:10242000C8810099088200994882009988820099A1
:10243000C88201B07047000081B000900099002070
:10244000C860009908600099486000998860009908
:10245000086200994862009988620099C8620099F0
:10246000086300994863009988630099C8630099DC
:10247000086600994866009988660099C8660099C0
:10248000086100994861009988610099C8610099C4
:10249000086700994867009988670099C86700999C
:1024A000086400994864009988640099C864009998
:1024B000086500994865009988650099C86501B06C
:1024C0007047000084B0039002910398806D0090E3
:1024D0000398406D009908400299084000900098C8
:1024E00020B9FFE700208DF8070003E001208DF8F8
:1024F0000700FFE79DF8070004B0704784B0039021
:1025000002918DF807200398806D00909DF80700D8
:1025100028B1FFE7029900980843009004E002996F
:10252000009888430090FFE700980399886504B0FD
:102530007047000080B50020C4F207000121FFF7BA
:10254000C1FFD8B1FFE740F28460C2F20000016829
:10255000013101600068013038B9FFE740F2846161
:10256000C2F2000100200860FFE7FEF719FF00201B
:10257000C4F207000121FFF7F1FEFFE780BD000074
:1025800080B590B00F900E910F9844F6D351C1F2E0
:102590006201A0FB011080090D900E984FF47A7132
:1025A00048430C900020C4F207000490FFF744FF5A
:1025B0002421C4F202014FF08070086006A8019047
:1025C000FFF71CFF049800210391FFF773FE0199A8
:1025D00004980D9AADF81A200C9AADF81C20FFF75C
:1025E000E1FE0E200290FFF7E9F902980399FFF748
:1025F000F7F90498012205921146FFF77FFF04982E
:102600000599FFF7B5FE10B080BD000083B00290C1
:102610008DF807102820C4F202000068009002988C
:102620000021C4F2030188420ED1FFE7009840F078
:1026300080700090009820F0FF0000909DF8071037
:1026400000980843009017E0029848F20001C4F295
:10265000030188420FD1FFE7009840F0007000901E
:10266000009820F47F4000909DF80710009840EA01
:1026700001200090FFE7FFE700982821C4F2020143
:10268000086003B07047000082B001908DF803101D
:102690009DF8030030B1FFE70199086B40F001009D
:1026A000086306E00199086B4FF6FE72104008635C
:1026B000FFE702B07047000080B590B00E900D911A
:1026C00001A8FFF7E3FA01980B902820C4F202005A
:1026D00000680C900E980021C4F20301884207D1D3
:1026E000FFE70C9800F007010B98C8400B900FE033
:1026F0000E9848F20001C4F20301884207D1FFE7B7
:102700000C98C0F302210B98C8400B90FFE7FFE73D
:102710000B980D9909688908B0FBF1F009900998A8
:1027200080090890099800F03F0007900B988000FE
:10273000089A079901EB8211B0FBF1F00A900A9810
:102740000D990968401AC001B0FBF1F00690069897
:10275000022805DCFFE7069810F1030F04DCFFE711
:1027600000208DF83F002AE008980E9948620798EB
:102770000E9988620E98C06A0C900D998888CA8854
:1027800010430A891043498901430C9808430C906F
:102790000C980E99C8620E98006B0C900C984FF62E
:1027A000807188430C900D9881890C9808430C9097
:1027B0000C980E99086301208DF83F00FFE79DF803
:1027C0003F0010B080BD000082B001908DF8031072
:1027D0009DF803000199086002B0704780B592B07F
:1027E00011900EA80090FFF70FFA00990220ADF8A3
:1027F0003800012005908DF83A00032201928DF8EF
:1028000040208DF841208DF8420048F20000C4F2CB
:102810000E000290FFF706F90BA80390FFF7F4F9FA
:10282000019B02980399059AADF82C204FF0000CFB
:10283000CDF810C08DF82EC08DF834308DF83530BD
:102840008DF83620FFF7EEF805998020FFF784FB1E
:10285000049948F20000C4F203000690FFF7D6FE88
:1028600004990698119A07921022ADF826204FF489
:102870004072ADF82820ADF82410ADF82210602188
:10288000ADF8201007A9FFF717FF05990698FFF785
:10289000FBFE12B080BD000081B00090009800F0F7
:1028A0003F0248F20001C4F20A01086810430860C0
:1028B000009860F03F0208681040086000990C2002
:1028C00000EA111248F20001C4F20E010868104338
:1028D0000860009A6FF00C0040EA1212086810407D
:1028E000086001B07047000080B582B08DF8070025
:1028F000FEF74AFD0090FFE700989DF807200121B0
:102900009140884205D1FFE7FFE7FEF73DFD0090CB
:10291000F2E702B080BD000080B582B08DF80700FC
:1029200048F20001C4F20B010091086840F0020077
:102930000860FFF785F9009948F20402C4F20A0220
:10294000106840F03F00106048F20402C4F20E022A
:10295000106840F00C0010600022C4F20B021068F6
:1029600020F480601060086820F0010008609DF885
:102970000700FFF791FFFFF763F90099086820F05F
:1029800002000860FFF75CF902B080BD80B582B03C
:102990008DF8070048F20001C4F20B0100910868AD
:1029A00040F002000860FFF74BF9009948F204027A
:1029B000C4F20A02106840F03F00106048F20402BE
:1029C000C4F20E02106840F00C0010600022C4F245
:1029D0000B02106820F480601060086840F001006D
:1029E00008609DF80700FFF757FFFFF729F90099E6
:1029F000086820F002000860FFF722F902B080BDED
:102A000080B584B040F29062C2F200021078411C9E
:102A100011700146039120B1FFE7039801280DD002
:102A20001FE048F20000C4F20B0002900121FFF702
:102A3000D7F802980221FFF7D3F812E048F200001D
:102A4000C4F20B0001900121FFF7B8F801980221B0
:102A5000FFF7B4F840F29061C2F200010020087064
:102A6000FFE704B080BD000080B5FEF7A3FD40F293
:102A70007C61C2F2000140F20000C2F20000086076
:102A800040F28061C2F2000104200870FEF750FDA0
:102A900080BD000080B58CB0DDF840C0DDF83CC0E2
:102AA000DDF838C00B900A910992089343F2EC626A
:102AB000C0F60002002105910846FEF71DFE0599AB
:102AC0000A9A1E20FEF718FE059843F2F262C0F63D
:102AD000000208210191FEF70FFE0199099A3020AA
:102AE000FEF70AFE059843F2DF62C0F600021021ED
:102AF0000291FEF701FE029908984DF68362C4F236
:102B00001B32A0FB0220820C4820FEF71DFE43F280
:102B1000CF62C0F600025A20069020210491FEF7F1
:102B2000EBFD059843F2FB62C0F600021821039109
:102B3000FEF7E2FD03990E9A6020FEF705FE039969
:102B400043F21C72C0F600026C20FEF7D5FD04991A
:102B5000059843F2D362C0F60002FEF7CDFD04995A
:102B60000F9A4220FEF7F0FD049943F22072C0F65E
:102B700000026420FEF7C0FD059843F20C72C0F617
:102B8000000228210791FEF7B7FD06980799109AD1
:102B9000FEF7DAFD0CB080BD80B592B00020049045
:102BA00011908DF8400042F22E00C2F6CD600F90D9
:102BB0004EF2EE20CCF620500E904EF2C820CEF60B
:102BC000E0500D9043F23110C0F239000C904CF6F9
:102BD000D030C2F631500B9042F20040C0F2F40007
:102BE0000890042009904FF496400A90089800F04D
:102BF00073F800F0BFF808980999FFF7C1FC0A982C
:102C0000FFF7ECFDFFF730FF43F2CC61C0F60001A7
:102C10000DF11900FDF738FB0498089B0999DDF8C0
:102C200028C06A469060C2F804C011600DA90BAAC2
:102C3000FFF730FFFFE740F28C60C2F2000000684F
:102C400078BBFFE700200590FFE7059808280FDC18
:102C5000FFE705990DF11900415C48F20000C4F24C
:102C60000300FFF7B1FDFFE7059801300590ECE7A1
:102C700048F20000C4F203000A21FFF7A5FD40F26C
:102C80008460C2F2000002685A202821FEF75CFD31
:102C9000FFF7B6FE40F28C61C2F20001022008602C
:102CA000FFE740F28C60C2F200000068012812D1F8
:102CB000FFE740F28460C2F2000002685A20282137
:102CC000FEF742FDFFF79CFE40F28C61C2F200016C
:102CD00003200860FFE7AEE782B0019001984DF64F
:102CE0008361C4F21B31A0FB01014FF0FF3000EB08
:102CF000515100911C21C4F2020108600821C4F264
:102D00000201086840F001000860FFE70020C4F2FB
:102D1000020000684007002801D4FFE7F6E70C2115
:102D2000C4F20201086840F002000860086840F43C
:102D300080700860009A0421C4F20201086840EA29
:102D400002200860086840F004000860FFE70020E7
:102D5000C4F2020000688007002801D4FFE7F6E70C
:102D60000C21C4F20201086840F00400086002B0BF
:102D70007047000080B584B001A80090FEF744FFC2
:102D800000990320ADF8040001208DF806008DF8AD
:102D90000D008DF80E0048F20000C4F20B00FEF7A3
:102DA00041FE04B080BD5FEA400C08BF91F0000F07
:102DB0004FEA8C234FEAC12243EA51514FEA1C509B
:102DC00018BF00F5F0404FEA300018BF41F0004155
:102DD0005FEA6C5C00F02980BCF1FF3F08BF40F067
:102DE00080407047130C06BF12044FF0100C4FF0D8
:102DF000000C130E04BF12020CF1080C130F04BFD9
:102E000012010CF1040C930F04BF92000CF1020CA0
:102E1000D30F04BF52000CF1010C11464FF0000219
:102E2000A0F11F00A0EB0C00704711F0004F08BF8D
:102E3000704731F000413FF4D5AF0B0C06BF0904D9
:102E40004FF0100C4FF0000C0B0E04BF09020CF1F8
:102E5000080C0B0F04BF09010CF1040C8B0F04BF0D
:102E600089000CF1020CCB0F04BF49000CF1010CDE
:102E7000CCF1200322FA03F341EA030102FA0CF237
:102E8000A0EB0C0000F101007047000023F07F4729
:102E900020F07F4C80EA030000F00040ACEB070319
:102EA00003F57C5303F1FF032DE9804909B44FEA90
:102EB000144324EA03484FEA154B25EA0B4E0FF260
:102EC000042606EB13273E7803FB0667C7F50007C9
:102ED00007FB06F64FEAD64606F102064FEA5437DC
:102EE00007FB066CCCF1005C4FEA1C472CEA074C50
:102EF0000CFB06F507FB06F404EB15464FEA9616A5
:102F000049085FEA320234BF00204FF000404FEA28
:102F1000D13706FB07FC4FEA1C4C0CFB0BF7D21B0E
:102F200003FB0CF761EB07010CFB0EF7B0EB07405E
:102F300072EB17420CFB08F734BFA2EB0742B2EB6F
:102F4000074261EB17414FEA0C444FEA910706FB39
:102F500007FC4FEA1C4C0CFB0BF7B0EBC74072EBC5
:102F6000573203FB0CF734BFA2EBC742B2EBC742A8
:102F700061EB57310CFB0EF7B0EBC70072EB5772E9
:102F80000CFB08F734BFA2EBC702B2EBC70261EB40
:102F900057714FEA816141EA92114FEA826242EA37
:102FA00090124FEA806004EBCC04039F4FEAD137C4
:102FB00006FB07FC4FEA1C4C0CFB0BF7D21B03FB78
:102FC0000CF761EB07010CFB0EF7B0EB074072EB5F
:102FD00017420CFB08F734BFA2EB0742B2EB0742E3
:102FE00061EB17414FEA8C5504EB9C244FEA9107A3
:102FF00006FB07FC4FEA1C4C0CFB0BF7B0EBC74081
:1030000072EB573203FB0CF734BFA2EBC742B2EBB3
:10301000C74261EB57310CFB0EF7B0EBC70072EB08
:1030200057720CFB08F734BFA2EBC702B2EBC70222
:1030300061EB57714FEA816141EA92114FEA826276
:1030400042EA90124FEA806015EB4C2544F10004EF
:103050004FEAD13706FB07FC4FEA1C4C0CFB0BF781
:10306000D21B03FB0CF761EB07010CFB0EF7B0EB77
:10307000074072EB17420CFB08F734BFA2EB074284
:10308000B2EB074261EB17414FEA813141EA9241CD
:103090004FEA823242EA90424FEA80304FEA0C76A1
:1030A00015EB1C1544F1000448EA03434EEA0B48B3
:1030B0004FF0000EB2EB080C71EB030724BF624621
:1030C00039464EEB0E0E4FF0000B001852414941AD
:1030D0004BEB0B0BB2EB080C71EB03077BF1000B16
:1030E00024BF624639464EEB0E0E4FF0000B00181F
:1030F000524149414BEB0B0BB2EB080C71EB030750
:103100007BF1000B24BF624639464EEB0E0E51EAAE
:10311000020718BF46F0010616EB0E7655F10002C5
:1031200054F1000103D5BDE88901BDE80088BDE880
:103130008901BDE80048B619524141EB0101A3F1F4
:103140000103704780807F7E7D7C7B7A79787776FB
:1031500076757473727171706F6E6E6D6C6C6B6A74
:103160006A69686867666665646463636261616012
:10317000605F5F5E5E5D5D5C5C5B5B5A5A5959588F
:1031800058575756565555555454535352525251F9
:10319000515050504F4F4F4E4E4D4D4D4C4C4C4B4F
:1031A0004B4B4A4A4A494949484848474747474696
:1031B00046464545454444444443434343424242D2
:1031C000424141419C46002B30D477002BD04FEA3E
:1031D00037071CB503B44FF010004FF01001BAF1DF
:1031E000000F06D0BCF1000FDCBF40F0080040F03B
:1031F00008014FF000000FBCBDE810400BF1010BBF
:10320000BBF1010F08BF5FEA170722BF12F10102ED
:1032100011F101014FF0004143F1000300F00040C3
:1032200043EA00007047F9D35708D0E746EA06465C
:103230004FEA164613F1400F1FDD13F1200FDFBFD9
:1032400016430A46002120335B42BED0C3F120075B
:1032500046EA06464FEA164602FA07F746EA070626
:1032600022FA03F2C3F1200701FA07F742EA070244
:1032700021FA03F14FF00003A7E746EA020646EA07
:1032800006464FEA164646EA0106BCBF46EA06462F
:10329000360C4FF000034FF000024FF0000194E7AE
:1032A0002DE9804C70B49A46934691E8380007C8DF
:1032B00031EA400C48BF34EA430C03D5FFF7E6FD82
:1032C000FFF780FFF0BCBDE8008C2DE9804C70B4A6
:1032D0009A46934691E8380007C810F0804F08BF1F
:1032E00013F0804F03D100F005F8FFF76BFFF0BC3F
:1032F000BDE8008C20F07F4723F07F4C80EA03007C
:1033000000F0004007EB0C03A3F57C53A3F1FE0390
:1033100092F0000F00F0B38095F0000F00F077807E
:103320002DE901494FEA114021EA00484FEA1446CD
:1033300024EA064700FB06FC08FB06F607FB08F834
:1033400018EB06484CEB164C00FB07F718EB074848
:103350004CEB17404FEA124B22EA0B4E4FEA154650
:1033600025EA06470BFB06FC0EFB06F607FB0EFEE6
:103370001EEB064E4CEB164C0BFB07F71EEB074EF5
:103380004CEB174B18EB0B0840F1000018EB0E0B41
:1033900058EB000840F100008F1A4FF000014FF089
:1033A00000063CBFC943661B14BFB5EB040C0021EB
:1033B0003CBFC943F61B4FEA174427EA04454FEACE
:1033C0001C472CEA074C04FB076205FB07F70CFBC4
:1033D00005F616EB074642EB174204FB0CFC16EB16
:1033E0000C4642EB1C421BEB060658EB0202414125
:1033F0004EEA8E0E46EA9E0601D5BDE80189B61951
:10340000524141EB0101A3F10103BDE801894FEAFB
:10341000144524EA05464FEA114721EA074C05FB0B
:1034200007F406FB07F70CFB06F111EB074144EB31
:10343000174405FB0CFC11EB0C4144EB1C444FEA18
:10344000124722EA074C05FB07F206FB07F70CFBC5
:1034500006F616EB074642EB174205FB0CFC16EB93
:103460000C4642EB1C456A1854F1000148BF7047F6
:10347000B619524141EB0101A3F10103704795F0E8
:10348000000F37D04FEA114221EA02464FEA1447B3
:1034900024EA074C02FB07F106FB07F70CFB06F4D6
:1034A00014EB074441EB174102FB0CFC14EB0C44FA
:1034B00041EB1C414FEA154725EA074C02FB07F593
:1034C00006FB07F70CFB06F616EB074645EB174520
:1034D00002FB0CFC16EB0C4645EB1C42121951F199
:1034E000000148BF7047B619524141EB0101A3F1F9
:1034F000010370474FEA144524EA05464FEA114795
:1035000021EA074C05FB07F106FB07F70CFB06F267
:1035100012EB074241EB174105FB0CFC12EB0C428E
:1035200051EB1C414FF0000648BF7047921841EB29
:103530000101A3F101037047490050EAC12018BFFF
:1035400004204A0D18BF40F0010040F2FF72B2EBB8
:10355000515F08BF40F00200012808BF05207047F6
:1035600030380A2801D2012070470020704700003F
:1035700010B500290AD00878002807D005487844FB
:10358000FDF7BAFE002801D0002010BD02487844A3
:1035900010BD0000CA010000C201000010B50029E2
:1035A0000AD00878002807D005487844FDF7A4FE23
:1035B000002801D0002010BD0248784410BD000052
:1035C000BA010000B2010000FDF7A0BAFDF7D4BBBC
:1035D000000000000000000030313233343536374F
:1035E0003839414243444546403058003031323347
:1035F0003435363738396162636465664030780047
:1036000004000008000000000000000200010000AB
:10361000103031323334353637383961626364659E
:1036200066787000303132333435363738394142BC
:10363000434445465850000002400000000000A0EE
:103640000000000005400000000000C8000000006D
:103650000C4000000000409C0000000019400000E9
:103660000020BCBE0000000034400000BFC91B8E1B
:1036700000000004B5400000504BCFD06607E2CFF9
:10368000010000006C4100003E8251AADFEEA73429
:1036900001000000D9420000DCB5A0E23A301F97DB
:1036A000FFFFFFFFB4450000FD25A0C8E9A3C14FFF
:1036B000FFFFFFFFFF3F0000000000800000000050
:1036C000FF3F00000000008000000000313620CCE9
:1036D000C3F600D1EAEEF020554152543A2000D70B
:1036E000E0F1F2EEF2E020CCCA3A2000D4C8CE3AA3
:1036F0002000C3F0F3EFEFE03A2000D7E0F1F2EE64
:10370000F2E020EFF0E5F0FBE23A2000CAEEEB2D0C
:10371000E2EE20EFF0E5F0FBE23A2000F1E5EA000E
:1037200020E12FF10025640074380008000000201B
:1037300014060000FC000008083D000818060020E0
:1037400080060000580100081C0000004300000033
:10375000F8FFFFFF0C0000000E0000000F0000004B
:103760002E0000001001000043000000F8FFFFFFE2
:103770000040404040404040404041414141414084
:103780004040404040404040404040404040404039
:1037900040050202020202020202020202020202C8
:1037A00002202020202020202020200202020202CD
:1037B0000202909090909090101010101010101025
:1037C0001010101010101010101010100202020231
:1037D0000202888888888888080808080808080875
:1037E0000808080808080808080808080202020271
:1037F0004000000000000000000000000000000089
:1038000000000000000000000000000000000000B8
:1038100000000000000000000000000000000000A8
:103820000000000000000000000000000000000098
:103830000000000000000000000000000000000088
:103840000000000000000000000000000000000078
:103850000000000000000000000000000000000068
:103860000000000000000000000000000000000058
:10387000000000003208320632FF22107220163E8D
:103880004551453E163E6B6F6B3E161C3E7C3E1C02
:1038900016183C7E3C181630367F363026185C7E73
:1038A0005C181A180417FFFFE7E7FFFF153C2424F4
:1038B0003C17FFC3DBDBC3FF1630484A360E160643
:1038C000297929061660703F020416607E0A353F8A
:1038D000262A1C361C2A157F3E1C0825081C3E7F04
:1038E0001A144E22141A5F02111606097F017F1660
:1038F000224D5559221A6001191E15B6FFB614162D
:1039000004067F06041610307F30105B08083C1355
:1039100008081B784001111B083E021116303C3F7D
:103920003C3086030F3F0F031B065FD62B070303B4
:103930001B247E021125242B6A121663130864636C
:103940003E36495620501F29EB424133413E195F14
:10395000194E19661960111AE083190C19012129F1
:103960008F111E20100804022F2A412C24427F4070
:103970001662514949461622494949361618141209
:103980007F101A2F0C1231163C4A4949301E017122
:103990000905036C291E26064949291E436C6C2A19
:1039A000EC061C081422792A2401197E142214081A
:1039B0001E020159090660145D551E167E11111173
:1039C0007E3A7F3C297212223A7F78291212411ED8
:1039D0007F09090901181449497A1A7FA11A7F42FF
:1039E0001A7F4E1E304040403F12295B1A7F0C1256
:1039F000402E7F0204027F06192449BA293C296619
:103A00002C51215E0C1319661A265412321601012C
:103A10007F01013A3F421E1F2040201F0C1A3C0C20
:103A200016631408146316070870080735714945B2
:103A300043198B2119531B1020781A417D3F040232
:103A400001020480012133030716205454547816D0
:103A50007F444444381A38063A2806127F1A381828
:103A6000120825087E09091618A4A4A47C457F0421
:103A70000478237D401D4080847D5F441028441AD3
:103A80007F121C7C04181F3A7C24294212387AFCCD
:103A90005412FC1D447844044E1954122025043E4F
:103AA0004424253C40207C1A1CC0121C163C60306B
:103AB000603C256C10106C1B9CA00B1125645454A9
:103AC0004C2B083EC02142771541413E0819BF1AD0
:103AD000013C2F2623263C4411022BAA55022BBB66
:103AE000EE02311AFF351B0808062C0A0A0A0C3AA6
:103AF000FF123CF808F8121AFE062AFB12190429D4
:103B0000242BFA02121C0B080F242A0F0619242951
:103B10000C2A0830311A0F0A1A081A29012CF80841
:103B20000838390C4901190C29122B0A0A4E190CB4
:103B30001C0F080B0C1CFE02FA462A0B0C1960190C
:103B40000C191E1AFB0C49015AFB0C191E29722B69
:103B5000080826190C19A239421912297819362198
:103B60001AFE063918196A29602E7E4B4A4B42D834
:103B70001930199651191E3AFF013AF001190961DD
:103B800019093A0F0111163E494941221638545479
:103B900044282601407E400124017C411627484BE1
:103BA000483F259DA2623D25060909061D3855544A
:103BB000557E431818298711101230403E02027FAB
:103BC00006187F13132A3E14143E2A1A3C0181164C
:103BD0007E1111117E3E7F494949310612361B7F05
:103BE00001013FC07E41417FC01212413F77087FF3
:103BF0000877221D11167F2010087F1D7E211109D4
:103C000036150814224116407E01017F1D7F0204F3
:103C1000020619D4127F3E3E4141413E4819122A04
:103C200009972912122219101B0101B41A48B4165F
:103C30000E117F110E1663140814631C7F40406C34
:103C40003A073C1B7F400239061008FF03017F48FA
:103C5000483029051912193612301D224149495A96
:103C60001B083E6016661909097F162054545478C3
:103C7000163C4A4A4A311A7C0C1228157C04040C62
:103C800017C07844447CC01A38121208166C107C95
:103C9000106C3B28441E19C01A7C061B120A06141D
:103CA00010284426403804047C3B7C08181510106A
:103CB000107C2E38444444384819193AFC0C291217
:103CC00012281910130404259CA0603C1E18247CA3
:103CD00024185A1959111C7C40406C3A0C3C1B7C2E
:103CE000400239061008FC0C047C505020290519AC
:103CF000122A500C2984195A1B10385416483414AF
:083D0000147C13127A0000008C
:0400000508000249A4
:00000001FF
